:1000000019C033C032C031C030C02FC02EC02DC087
:100010002CC02BC0D3C129C028C027C026C025C0F2
:1000200024C023C022C0BEC1BEC1BEC1BEC1BEC1AC
:10003000BEC1BEC111241FBECFE5D4E0DEBFCDBF1F
:1000400020E0A6E6B0E001C01D92A537B207E1F7B7
:1000500010E0A0E6B0E0E8E2FEE002C005900D92FC
:10006000A636B107D9F78BD5DDC6CACF92B321E04A
:1000700030E001C0220F8A95EAF7292722BB0895B4
:1000800042B321E030E0662349F0B90102C0660FB7
:10009000771F8A95E2F7CB01842B09C0B90102C012
:1000A000660F771F8A95E2F7CB018095842382BB88
:1000B000089590917000916090937000E0916E00AF
:1000C000F0916F0096EE9083E0916E00F0916F00DA
:1000D0008183E0916E00F0916F0087EE828383E070
:1000E00080936D0080818FB910926C0010926B002C
:1000F000809170008C7F80937000089580917000D3
:1001000081608093700010926D0010926C001092CC
:100110006B00809170008E7F8093700080917000E2
:100120008260809370000895813F11F088E0089507
:1001300087E00895CF93DF931F92CDB7DEB79091FC
:100140006D0021E0290F20936D00923061F48983C6
:10015000C2D28981813F11F088E001C087E00F9011
:10016000DF91CF91A6CF0F90DF91CF910895CF93DC
:10017000DF931F92CDB7DEB790916D0021E0290F7C
:1001800020936D00923061F48983A6D38981813FE9
:1001900011F088E001C087E00F90DF91CF9189CF07
:1001A0000F90DF91CF91089590916D0021E0290F7C
:1001B00020936D00923031F4813F11F088E001C04E
:1001C00087E077CF089590917000946090937000CD
:1001D00090917000977F9093700090916D00933094
:1001E00031F09430C9F09230E1F490E00BC02091EE
:1001F000670030916800A9016FEF869F400D511D87
:100200001124CA01909368008093670080916D006B
:100210008F5F80936D00089510926C0010926B00B8
:10022000F5CF40916B0050916C00209167003091A8
:10023000680042175307A0F44091690050916A008A
:1002400020916B0030916C00B9016F5F7F4F70930C
:100250006C0060936B00FA01E20FF31F8083089536
:1002600040916B0050916C002091670030916800C4
:100270004217530751F480916B0090916C000196E6
:1002800090936C0080936B000895813F11F088E09B
:1002900001C087E00EDF809170008B7F809370003B
:1002A000089590916D0021E0290F20936D00923008
:1002B00059F0933019F4809366000895813F11F04E
:1002C00088E001C087E0F5CE0895CF93C82F8091D4
:1002D0006D0091E0980F90936D00E0916E00F091A9
:1002E0006F00823019F4C283CF9108958281828198
:1002F000803110F080E1DDDEE0916E00F0916F0062
:10030000828137D3C13F11F088E001C087E0CF91EF
:10031000D0CE882311F0909A089590980895CF93A5
:10032000C82F80916D0091E0980F90936D00E0913F
:100330006E00F0916F00823019F4C283CF9108955E
:100340008281E7DFC13F11F088E001C087E0CF91F3
:10035000B0CE90916D00911107C0803F71F5E09192
:100360006E00F0916F0008C090916D00E0916E00FA
:10037000F0916F00913051F490916D0021E0290FC0
:1003800020936D00E90FF11D80830895E1814E2FC8
:1003900050E0FA01E556F109E730F10550F4ED5E61
:1003A000FF4F0994C7CEE3CEFFCE0DCF7ACF8DCFCE
:1003B000B6CF813F11F489E07CCE08951F920F9251
:1003C0000FB60F9211242F933F934F935F936F9328
:1003D0007F938F939F93AF93BF93EF93FF9381E0AE
:1003E00045DE8091700080FD29C08091700081FF02
:1003F00004C08FB11FB8ADDF21C080916B00909118
:100400006C00019690936C0080936B0080916D005E
:1004100020916B0030916C0090E02817390768F448
:1004200080916B0090916C00E0916E00F0916F00F4
:10043000E80FF91F80818FB901C060DEFF91EF9155
:10044000BF91AF919F918F917F916F915F914F91EC
:100450003F912F910F900FBE0F901F90189581B371
:100460008F6081BB84B38F6384BBBC9A8DB1806C79
:100470008DB91FB87894089582E08093700061E090
:1004800070E08FE190E08CD390936F0080936E00CA
:1004900010926D0010926C0010926B0061E070E0A1
:1004A00088E592E07DD390936A0080936900109272
:1004B0006800109267008EE1809366000895809135
:1004C000700082FB882780F991E089270895FF92C8
:1004D0000F931F93CF93DF931F92CDB7DEB7182FE3
:1004E00000E0061791F0F12CF11669F08FE99FE01A
:1004F0000197F1F700C000006983E1DF698188237B
:1005000021F0F394F1CF0F5FECCF0F90DF91CF91FB
:100510001F910F91FF900895809166006AE0D7CFF8
:10052000FBCF86C2CF93C0E040E060E08C2F80D24A
:10053000CF5FC032C9F7CF910895CF93DF93EC011D
:10054000BEDF882381F08091670090916800C81712
:10055000D90740F48091690090916A00C80FD91FB3
:10056000888101C080E0DF91CF9108956AE084E640
:10057000AECF0F931F93CF93DF931F92CDB7DEB70C
:100580008091700083FF06C00F90DF91CF911F9183
:100590000F91ECCFC7DF00E010E091DF8823A9F0D6
:1005A000C8018096CADF482FC8014983C6DF498148
:1005B000682F802F3DD20F5F1F4F0032110569F762
:1005C000809170008860809370000F90DF91CF91D0
:1005D0001F910F9108958F929F92AF92BF92CF92E9
:1005E000DF92FF920F931F93CF93DF931F92CDB7AC
:1005F000DEB798DFC0906700D090680080E4C80E36
:10060000D11C00E010E00C151D0580F5F12C48010F
:1006100056DF8823C1F180E48816910428F0540144
:1006200080E4A81AB10804C088E5A82E82E0B82E9C
:10063000C40180968034910518F08054910902C05D
:1006400088E592E07ADF482FC501498376DF49814A
:10065000682F8F2DEDD1F3948FEF881A980A80E2DE
:10066000F812D6CF59DF0F5F1F4FCDCF0F90DF911C
:10067000CF911F910F91FF90DF90CF90BF90AF90DF
:100680009F908F9049CF0F90DF91CF911F910F9145
:10069000FF90DF90CF90BF90AF909F908F90089584
:1006A0006AE082E314CFCF93909A82B3817F82BBBA
:1006B000F7DFC5E0919AF4DF929AF2DF939AF0DFC8
:1006C0009198EEDF9298ECDF9398EADFC15091F7B2
:1006D00080E0CF911ECEA89A00C0A89800C023E069
:1006E00030E084E0A99882FF02C0AA9A01C0AA98CB
:1006F00000C0A99A00C02150310919F488E090E0A7
:1007000002C08695EFCFA998AA9800C0A99A00C008
:100710000197C9F7A998AA9800C0A99A00C028E033
:1007200030E080E8A99885FF02C0AA9A01C0AA9883
:1007300000C0A99A00C02150310911F08695F2CF6E
:10074000A998AA9800C0A99A00C028E030E080E8E3
:10075000A99880FF02C0AA9A01C0AA9800C0A99ACD
:1007600000C02150310911F08695F2CFA998AA98BE
:1007700000C0A99A00C028E030E080E8A998982F2E
:10078000937011F0AA9A01C0AA9800C0A99A00C05B
:100790002150310911F08695F1CFA998AA9800C08F
:1007A000A99A00C028E030E080E8A998982F9F7AA5
:1007B00011F0AA9A01C0AA9800C0A99A00C02150BD
:1007C000310911F08695F1CFA998AA9800C0A99A8D
:1007D00000C0A89A00C0AB9A00C0AB9800C023E04C
:1007E00030E084E0AC9882FF02C0AD9A01C0AD98C1
:1007F00000C0AC9A00C02150310919F488E090E0A3
:1008000002C08695EFCFAC98AD9800C0AC9A00C0FE
:100810000197C9F7AC98AD9800C0AC9A00C028E029
:1008200030E080E8AC9885FF02C0AD9A01C0AD9879
:1008300000C0AC9A00C02150310911F08695F2CF6A
:10084000AC98AD9800C0AC9A00C028E030E080E8D9
:10085000AC9880FF02C0AD9A01C0AD9800C0AC9AC0
:1008600000C02150310911F08695F2CFAC98AD98B7
:1008700000C0AC9A00C028E030E080E8AC98982F27
:10088000937011F0AD9A01C0AD9800C0AC9A00C051
:100890002150310911F08695F1CFAC98AD9800C088
:1008A000AC9A00C028E030E080E8AC98982F9F7A9E
:1008B00011F0AD9A01C0AD9800C0AC9A00C02150B3
:1008C000310911F08695F1CFAC98AD9800C0AC9A83
:1008D00000C0AB9A00C00895A89A00C0A89800C0B4
:1008E00023E030E084E0A99882FF02C0AA9A01C008
:1008F000AA9800C0A99A00C02150310919F488E0D3
:1009000090E002C08695EFCFA998AA9800C0A99A56
:1009100000C00197C9F7A998AA9800C0A99A00C079
:10092000A89A00C0AB9A00C0AB9800C023E030E0AA
:1009300084E0AC9882FF02C0AD9A01C0AD9800C0BF
:10094000AC9A00C02150310919F488E090E002C04F
:100950008695EFCFAC98AD9800C0AC9A00C00197D7
:10096000C9F7AC98AD9800C0AC9A00C0AB9A00C073
:1009700008958F70806AA89A00C0A89800C023E0EC
:1009800030E094E0A99892FF02C0AA9A01C0AA9808
:1009900000C0A99A00C02150310921F428E030E0BC
:1009A00090E80AC09695EECFAA9800C0A99A00C018
:1009B0002150310939F09695A998492F4823A1F380
:1009C000AA9AF3CFA998AA9800C0A99A00C0A89A99
:1009D00000C0AB9A00C0AB9800C023E030E094E0C8
:1009E000AC9892FF02C0AD9A01C0AD9800C0AC9A1D
:1009F00000C02150310921F428E030E090E80AC01D
:100A00009695EECFAD9800C0AC9A00C02150310948
:100A100039F09695AC98492F4823A1F3AD9AF3CFBE
:100A2000AC98AD9800C0AC9A00C0AB9A00C00895D5
:100A30008F71880F562F5F7062956F70A89A00C0F3
:100A4000A89800C023E030E094E0A998792F757051
:100A500011F0AA9A01C0AA9800C0A99A00C021501A
:100A6000310921F427E030E090E403C09695EDCF02
:100A70009695A998792F782311F0AA9A01C0AA987F
:100A800000C0A99A00C02150310991F724E030E05C
:100A900091E001C0990FA998792F752311F0AA9AB6
:100AA00001C0AA9800C0A99A00C02150310991F74D
:100AB00024E030E091E008C0AA9800C0A99A00C0E4
:100AC0002150310939F0990FA998592F5623A1F3D4
:100AD000AA9AF3CFA89A00C0542F5F7042954F7026
:100AE000AB9A00C0AB9800C023E030E094E0AC9833
:100AF000692F657011F0AD9A01C0AD9800C0AC9A35
:100B000000C02150310921F427E030E090E403C017
:100B10009695EDCF9695AC98692F682311F0AD9A14
:100B200001C0AD9800C0AC9A00C02150310991F7C6
:100B300024E030E081E001C0880FAC98982F952325
:100B400011F0AD9A01C0AD9800C0AC9A00C0215020
:100B5000310991F724E030E081E008C0AD9800C091
:100B6000AC9A00C02150310939F0880FAC98982F09
:100B70009423A1F3AD9AF3CFAB9A00C008956FDC34
:100B80007BDC91DD9CDC8823E9F380916700909108
:100B900068008134910510F4ECDCF4CF1CDDF2CF59
:100BA0000F931F93CF93DF93869F8001879F100D34
:100BB000969F100D1124C8010DD0EC01009721F073
:100BC000A80160E070E027D1CE01DF91CF911F91A5
:100BD0000F9108950F931F93CF93DF938230910568
:100BE00010F482E090E0E0917300F091740020E056
:100BF00030E0A0E0B0E0309719F1408151810281EE
:100C0000138148175907C8F08417950769F410979E
:100C100031F012960C93129713961C9327C00093F1
:100C200073001093740022C02115310519F042178A
:100C3000530718F49A01BD01EF01DF01F801DBCF82
:100C400021153105F9F0281B390B2430310580F4CA
:100C50008A819B816115710521F0FB019383828359
:100C600004C09093740080937300FE01329644C0D8
:100C7000FE01E20FF31F81939193225031093983D2
:100C800028833AC02091710030917200232B41F4E7
:100C900020916200309163003093720020937100C4
:100CA00020916000309161002115310541F42DB78C
:100CB0003EB74091640050916500241B350BE091D4
:100CC0007100F0917200E217F307A0F42E1B3F0BA6
:100CD0002817390778F0AC014E5F5F4F24173507AE
:100CE00048F04E0F5F1F5093720040937100819344
:100CF000919302C0E0E0F0E0CF01DF91CF911F912E
:100D00000F910895CF93DF93009709F481C0FC0100
:100D1000329713821282A0917300B09174001097E1
:100D200081F420813181820F931F209171003091D5
:100D300072002817390751F5F0937200E0937100A3
:100D400067C0ED0120E030E0CE17DF0740F44A81B4
:100D50005B819E0141155105F1F0EA01F5CFD38386
:100D6000C28340815181840F951FC817D90759F458
:100D700088819981840F951F0296918380838A814F
:100D80009B81938382832115310529F4F0937400AC
:100D9000E09373003DC0E901FB83EA8349915991D7
:100DA000C40FD51FEC17FD0761F480819181840F7A
:100DB000951F0296E90199838883828193819B83A1
:100DC0008A83E0E0F0E012968D919C911397009752
:100DD00019F0FD01DC01F7CF8D919C9111979D01D8
:100DE0002E5F3F4F820F931F209171003091720050
:100DF0002817390769F4309729F41092740010927B
:100E0000730002C013821282B0937200A09371002B
:100E1000DF91CF910895DC0101C06D9341505040A6
:080E2000E0F70895F894FFCFFC
:060E28000000750020002F
:00000001FF
